{"contracts/FileStorage.sol":{"FileStorage":{"abi":[{"inputs":[{"internalType":"string","name":"fileName","type":"string"}],"name":"getIPFSHash","outputs":[{"internalType":"string","name":"","type":"string"}],"stateMutability":"view","type":"function"},{"inputs":[{"internalType":"string","name":"fileName","type":"string"},{"internalType":"string","name":"ipfsHash","type":"string"}],"name":"upload","outputs":[],"stateMutability":"nonpayable","type":"function"}],"evm":{"bytecode":{"linkReferences":{},"object":"608060405234801561001057600080fd5b506107cd806100206000396000f3fe608060405234801561001057600080fd5b50600436106100365760003560e01c8063202e49361461003b5780634a5f66c114610057575b600080fd5b610055600480360381019061005091906102fa565b610087565b005b610071600480360381019061006c9190610372565b6100ed565b60405161007e919061043a565b60405180910390f35b6040518060400160405280838152602001828152506000836040516100ac9190610498565b908152602001604051809103902060008201518160000190816100cf91906106c5565b5060208201518160010190816100e591906106c5565b509050505050565b60606000826040516100ff9190610498565b9081526020016040518091039020600101805461011b906104de565b80601f0160208091040260200160405190810160405280929190818152602001828054610147906104de565b80156101945780601f1061016957610100808354040283529160200191610194565b820191906000526020600020905b81548152906001019060200180831161017757829003601f168201915b50505050509050919050565b6000604051905090565b600080fd5b600080fd5b600080fd5b600080fd5b6000601f19601f8301169050919050565b7f4e487b7100000000000000000000000000000000000000000000000000000000600052604160045260246000fd5b610207826101be565b810181811067ffffffffffffffff82111715610226576102256101cf565b5b80604052505050565b60006102396101a0565b905061024582826101fe565b919050565b600067ffffffffffffffff821115610265576102646101cf565b5b61026e826101be565b9050602081019050919050565b82818337600083830152505050565b600061029d6102988461024a565b61022f565b9050828152602081018484840111156102b9576102b86101b9565b5b6102c484828561027b565b509392505050565b600082601f8301126102e1576102e06101b4565b5b81356102f184826020860161028a565b91505092915050565b60008060408385031215610311576103106101aa565b5b600083013567ffffffffffffffff81111561032f5761032e6101af565b5b61033b858286016102cc565b925050602083013567ffffffffffffffff81111561035c5761035b6101af565b5b610368858286016102cc565b9150509250929050565b600060208284031215610388576103876101aa565b5b600082013567ffffffffffffffff8111156103a6576103a56101af565b5b6103b2848285016102cc565b91505092915050565b600081519050919050565b600082825260208201905092915050565b60005b838110156103f55780820151818401526020810190506103da565b60008484015250505050565b600061040c826103bb565b61041681856103c6565b93506104268185602086016103d7565b61042f816101be565b840191505092915050565b600060208201905081810360008301526104548184610401565b905092915050565b600081905092915050565b6000610472826103bb565b61047c818561045c565b935061048c8185602086016103d7565b80840191505092915050565b60006104a48284610467565b915081905092915050565b7f4e487b7100000000000000000000000000000000000000000000000000000000600052602260045260246000fd5b600060028204905060018216806104f657607f821691505b602082108103610509576105086104af565b5b50919050565b60008190508160005260206000209050919050565b60006020601f8301049050919050565b600082821b905092915050565b6000600883026105717fffffffffffffffffffffffffffffffffffffffffffffffffffffffffffffffff82610534565b61057b8683610534565b95508019841693508086168417925050509392505050565b6000819050919050565b6000819050919050565b60006105c26105bd6105b884610593565b61059d565b610593565b9050919050565b6000819050919050565b6105dc836105a7565b6105f06105e8826105c9565b848454610541565b825550505050565b600090565b6106056105f8565b6106108184846105d3565b505050565b5b81811015610634576106296000826105fd565b600181019050610616565b5050565b601f8211156106795761064a8161050f565b61065384610524565b81016020851015610662578190505b61067661066e85610524565b830182610615565b50505b505050565b600082821c905092915050565b600061069c6000198460080261067e565b1980831691505092915050565b60006106b5838361068b565b9150826002028217905092915050565b6106ce826103bb565b67ffffffffffffffff8111156106e7576106e66101cf565b5b6106f182546104de565b6106fc828285610638565b600060209050601f83116001811461072f576000841561071d578287015190505b61072785826106a9565b86555061078f565b601f19841661073d8661050f565b60005b8281101561076557848901518255600182019150602085019450602081019050610740565b86831015610782578489015161077e601f89168261068b565b8355505b6001600288020188555050505b50505050505056fea264697066735822122066e36860032c016d977d8223a34c54e16b9634fa1d1271fed5db2fee5d8381b964736f6c63430008130033","opcodes":"PUSH1 0x80 PUSH1 0x40 MSTORE CALLVALUE DUP1 ISZERO PUSH2 0x10 JUMPI PUSH1 0x0 DUP1 REVERT JUMPDEST POP PUSH2 0x7CD DUP1 PUSH2 0x20 PUSH1 0x0 CODECOPY PUSH1 0x0 RETURN INVALID PUSH1 0x80 PUSH1 0x40 MSTORE CALLVALUE DUP1 ISZERO PUSH2 0x10 JUMPI PUSH1 0x0 DUP1 REVERT JUMPDEST POP PUSH1 0x4 CALLDATASIZE LT PUSH2 0x36 JUMPI PUSH1 0x0 CALLDATALOAD PUSH1 0xE0 SHR DUP1 PUSH4 0x202E4936 EQ PUSH2 0x3B JUMPI DUP1 PUSH4 0x4A5F66C1 EQ PUSH2 0x57 JUMPI JUMPDEST PUSH1 0x0 DUP1 REVERT JUMPDEST PUSH2 0x55 PUSH1 0x4 DUP1 CALLDATASIZE SUB DUP2 ADD SWAP1 PUSH2 0x50 SWAP2 SWAP1 PUSH2 0x2FA JUMP JUMPDEST PUSH2 0x87 JUMP JUMPDEST STOP JUMPDEST PUSH2 0x71 PUSH1 0x4 DUP1 CALLDATASIZE SUB DUP2 ADD SWAP1 PUSH2 0x6C SWAP2 SWAP1 PUSH2 0x372 JUMP JUMPDEST PUSH2 0xED JUMP JUMPDEST PUSH1 0x40 MLOAD PUSH2 0x7E SWAP2 SWAP1 PUSH2 0x43A JUMP JUMPDEST PUSH1 0x40 MLOAD DUP1 SWAP2 SUB SWAP1 RETURN JUMPDEST PUSH1 0x40 MLOAD DUP1 PUSH1 0x40 ADD PUSH1 0x40 MSTORE DUP1 DUP4 DUP2 MSTORE PUSH1 0x20 ADD DUP3 DUP2 MSTORE POP PUSH1 0x0 DUP4 PUSH1 0x40 MLOAD PUSH2 0xAC SWAP2 SWAP1 PUSH2 0x498 JUMP JUMPDEST SWAP1 DUP2 MSTORE PUSH1 0x20 ADD PUSH1 0x40 MLOAD DUP1 SWAP2 SUB SWAP1 KECCAK256 PUSH1 0x0 DUP3 ADD MLOAD DUP2 PUSH1 0x0 ADD SWAP1 DUP2 PUSH2 0xCF SWAP2 SWAP1 PUSH2 0x6C5 JUMP JUMPDEST POP PUSH1 0x20 DUP3 ADD MLOAD DUP2 PUSH1 0x1 ADD SWAP1 DUP2 PUSH2 0xE5 SWAP2 SWAP1 PUSH2 0x6C5 JUMP JUMPDEST POP SWAP1 POP POP POP POP JUMP JUMPDEST PUSH1 0x60 PUSH1 0x0 DUP3 PUSH1 0x40 MLOAD PUSH2 0xFF SWAP2 SWAP1 PUSH2 0x498 JUMP JUMPDEST SWAP1 DUP2 MSTORE PUSH1 0x20 ADD PUSH1 0x40 MLOAD DUP1 SWAP2 SUB SWAP1 KECCAK256 PUSH1 0x1 ADD DUP1 SLOAD PUSH2 0x11B SWAP1 PUSH2 0x4DE JUMP JUMPDEST DUP1 PUSH1 0x1F ADD PUSH1 0x20 DUP1 SWAP2 DIV MUL PUSH1 0x20 ADD PUSH1 0x40 MLOAD SWAP1 DUP2 ADD PUSH1 0x40 MSTORE DUP1 SWAP3 SWAP2 SWAP1 DUP2 DUP2 MSTORE PUSH1 0x20 ADD DUP3 DUP1 SLOAD PUSH2 0x147 SWAP1 PUSH2 0x4DE JUMP JUMPDEST DUP1 ISZERO PUSH2 0x194 JUMPI DUP1 PUSH1 0x1F LT PUSH2 0x169 JUMPI PUSH2 0x100 DUP1 DUP4 SLOAD DIV MUL DUP4 MSTORE SWAP2 PUSH1 0x20 ADD SWAP2 PUSH2 0x194 JUMP JUMPDEST DUP3 ADD SWAP2 SWAP1 PUSH1 0x0 MSTORE PUSH1 0x20 PUSH1 0x0 KECCAK256 SWAP1 JUMPDEST DUP2 SLOAD DUP2 MSTORE SWAP1 PUSH1 0x1 ADD SWAP1 PUSH1 0x20 ADD DUP1 DUP4 GT PUSH2 0x177 JUMPI DUP3 SWAP1 SUB PUSH1 0x1F AND DUP3 ADD SWAP2 JUMPDEST POP POP POP POP POP SWAP1 POP SWAP2 SWAP1 POP JUMP JUMPDEST PUSH1 0x0 PUSH1 0x40 MLOAD SWAP1 POP SWAP1 JUMP JUMPDEST PUSH1 0x0 DUP1 REVERT JUMPDEST PUSH1 0x0 DUP1 REVERT JUMPDEST PUSH1 0x0 DUP1 REVERT JUMPDEST PUSH1 0x0 DUP1 REVERT JUMPDEST PUSH1 0x0 PUSH1 0x1F NOT PUSH1 0x1F DUP4 ADD AND SWAP1 POP SWAP2 SWAP1 POP JUMP JUMPDEST PUSH32 0x4E487B7100000000000000000000000000000000000000000000000000000000 PUSH1 0x0 MSTORE PUSH1 0x41 PUSH1 0x4 MSTORE PUSH1 0x24 PUSH1 0x0 REVERT JUMPDEST PUSH2 0x207 DUP3 PUSH2 0x1BE JUMP JUMPDEST DUP2 ADD DUP2 DUP2 LT PUSH8 0xFFFFFFFFFFFFFFFF DUP3 GT OR ISZERO PUSH2 0x226 JUMPI PUSH2 0x225 PUSH2 0x1CF JUMP JUMPDEST JUMPDEST DUP1 PUSH1 0x40 MSTORE POP POP POP JUMP JUMPDEST PUSH1 0x0 PUSH2 0x239 PUSH2 0x1A0 JUMP JUMPDEST SWAP1 POP PUSH2 0x245 DUP3 DUP3 PUSH2 0x1FE JUMP JUMPDEST SWAP2 SWAP1 POP JUMP JUMPDEST PUSH1 0x0 PUSH8 0xFFFFFFFFFFFFFFFF DUP3 GT ISZERO PUSH2 0x265 JUMPI PUSH2 0x264 PUSH2 0x1CF JUMP JUMPDEST JUMPDEST PUSH2 0x26E DUP3 PUSH2 0x1BE JUMP JUMPDEST SWAP1 POP PUSH1 0x20 DUP2 ADD SWAP1 POP SWAP2 SWAP1 POP JUMP JUMPDEST DUP3 DUP2 DUP4 CALLDATACOPY PUSH1 0x0 DUP4 DUP4 ADD MSTORE POP POP POP JUMP JUMPDEST PUSH1 0x0 PUSH2 0x29D PUSH2 0x298 DUP5 PUSH2 0x24A JUMP JUMPDEST PUSH2 0x22F JUMP JUMPDEST SWAP1 POP DUP3 DUP2 MSTORE PUSH1 0x20 DUP2 ADD DUP5 DUP5 DUP5 ADD GT ISZERO PUSH2 0x2B9 JUMPI PUSH2 0x2B8 PUSH2 0x1B9 JUMP JUMPDEST JUMPDEST PUSH2 0x2C4 DUP5 DUP3 DUP6 PUSH2 0x27B JUMP JUMPDEST POP SWAP4 SWAP3 POP POP POP JUMP JUMPDEST PUSH1 0x0 DUP3 PUSH1 0x1F DUP4 ADD SLT PUSH2 0x2E1 JUMPI PUSH2 0x2E0 PUSH2 0x1B4 JUMP JUMPDEST JUMPDEST DUP2 CALLDATALOAD PUSH2 0x2F1 DUP5 DUP3 PUSH1 0x20 DUP7 ADD PUSH2 0x28A JUMP JUMPDEST SWAP2 POP POP SWAP3 SWAP2 POP POP JUMP JUMPDEST PUSH1 0x0 DUP1 PUSH1 0x40 DUP4 DUP6 SUB SLT ISZERO PUSH2 0x311 JUMPI PUSH2 0x310 PUSH2 0x1AA JUMP JUMPDEST JUMPDEST PUSH1 0x0 DUP4 ADD CALLDATALOAD PUSH8 0xFFFFFFFFFFFFFFFF DUP2 GT ISZERO PUSH2 0x32F JUMPI PUSH2 0x32E PUSH2 0x1AF JUMP JUMPDEST JUMPDEST PUSH2 0x33B DUP6 DUP3 DUP7 ADD PUSH2 0x2CC JUMP JUMPDEST SWAP3 POP POP PUSH1 0x20 DUP4 ADD CALLDATALOAD PUSH8 0xFFFFFFFFFFFFFFFF DUP2 GT ISZERO PUSH2 0x35C JUMPI PUSH2 0x35B PUSH2 0x1AF JUMP JUMPDEST JUMPDEST PUSH2 0x368 DUP6 DUP3 DUP7 ADD PUSH2 0x2CC JUMP JUMPDEST SWAP2 POP POP SWAP3 POP SWAP3 SWAP1 POP JUMP JUMPDEST PUSH1 0x0 PUSH1 0x20 DUP3 DUP5 SUB SLT ISZERO PUSH2 0x388 JUMPI PUSH2 0x387 PUSH2 0x1AA JUMP JUMPDEST JUMPDEST PUSH1 0x0 DUP3 ADD CALLDATALOAD PUSH8 0xFFFFFFFFFFFFFFFF DUP2 GT ISZERO PUSH2 0x3A6 JUMPI PUSH2 0x3A5 PUSH2 0x1AF JUMP JUMPDEST JUMPDEST PUSH2 0x3B2 DUP5 DUP3 DUP6 ADD PUSH2 0x2CC JUMP JUMPDEST SWAP2 POP POP SWAP3 SWAP2 POP POP JUMP JUMPDEST PUSH1 0x0 DUP2 MLOAD SWAP1 POP SWAP2 SWAP1 POP JUMP JUMPDEST PUSH1 0x0 DUP3 DUP3 MSTORE PUSH1 0x20 DUP3 ADD SWAP1 POP SWAP3 SWAP2 POP POP JUMP JUMPDEST PUSH1 0x0 JUMPDEST DUP4 DUP2 LT ISZERO PUSH2 0x3F5 JUMPI DUP1 DUP3 ADD MLOAD DUP2 DUP5 ADD MSTORE PUSH1 0x20 DUP2 ADD SWAP1 POP PUSH2 0x3DA JUMP JUMPDEST PUSH1 0x0 DUP5 DUP5 ADD MSTORE POP POP POP POP JUMP JUMPDEST PUSH1 0x0 PUSH2 0x40C DUP3 PUSH2 0x3BB JUMP JUMPDEST PUSH2 0x416 DUP2 DUP6 PUSH2 0x3C6 JUMP JUMPDEST SWAP4 POP PUSH2 0x426 DUP2 DUP6 PUSH1 0x20 DUP7 ADD PUSH2 0x3D7 JUMP JUMPDEST PUSH2 0x42F DUP2 PUSH2 0x1BE JUMP JUMPDEST DUP5 ADD SWAP2 POP POP SWAP3 SWAP2 POP POP JUMP JUMPDEST PUSH1 0x0 PUSH1 0x20 DUP3 ADD SWAP1 POP DUP2 DUP2 SUB PUSH1 0x0 DUP4 ADD MSTORE PUSH2 0x454 DUP2 DUP5 PUSH2 0x401 JUMP JUMPDEST SWAP1 POP SWAP3 SWAP2 POP POP JUMP JUMPDEST PUSH1 0x0 DUP2 SWAP1 POP SWAP3 SWAP2 POP POP JUMP JUMPDEST PUSH1 0x0 PUSH2 0x472 DUP3 PUSH2 0x3BB JUMP JUMPDEST PUSH2 0x47C DUP2 DUP6 PUSH2 0x45C JUMP JUMPDEST SWAP4 POP PUSH2 0x48C DUP2 DUP6 PUSH1 0x20 DUP7 ADD PUSH2 0x3D7 JUMP JUMPDEST DUP1 DUP5 ADD SWAP2 POP POP SWAP3 SWAP2 POP POP JUMP JUMPDEST PUSH1 0x0 PUSH2 0x4A4 DUP3 DUP5 PUSH2 0x467 JUMP JUMPDEST SWAP2 POP DUP2 SWAP1 POP SWAP3 SWAP2 POP POP JUMP JUMPDEST PUSH32 0x4E487B7100000000000000000000000000000000000000000000000000000000 PUSH1 0x0 MSTORE PUSH1 0x22 PUSH1 0x4 MSTORE PUSH1 0x24 PUSH1 0x0 REVERT JUMPDEST PUSH1 0x0 PUSH1 0x2 DUP3 DIV SWAP1 POP PUSH1 0x1 DUP3 AND DUP1 PUSH2 0x4F6 JUMPI PUSH1 0x7F DUP3 AND SWAP2 POP JUMPDEST PUSH1 0x20 DUP3 LT DUP2 SUB PUSH2 0x509 JUMPI PUSH2 0x508 PUSH2 0x4AF JUMP JUMPDEST JUMPDEST POP SWAP2 SWAP1 POP JUMP JUMPDEST PUSH1 0x0 DUP2 SWAP1 POP DUP2 PUSH1 0x0 MSTORE PUSH1 0x20 PUSH1 0x0 KECCAK256 SWAP1 POP SWAP2 SWAP1 POP JUMP JUMPDEST PUSH1 0x0 PUSH1 0x20 PUSH1 0x1F DUP4 ADD DIV SWAP1 POP SWAP2 SWAP1 POP JUMP JUMPDEST PUSH1 0x0 DUP3 DUP3 SHL SWAP1 POP SWAP3 SWAP2 POP POP JUMP JUMPDEST PUSH1 0x0 PUSH1 0x8 DUP4 MUL PUSH2 0x571 PUSH32 0xFFFFFFFFFFFFFFFFFFFFFFFFFFFFFFFFFFFFFFFFFFFFFFFFFFFFFFFFFFFFFFFF DUP3 PUSH2 0x534 JUMP JUMPDEST PUSH2 0x57B DUP7 DUP4 PUSH2 0x534 JUMP JUMPDEST SWAP6 POP DUP1 NOT DUP5 AND SWAP4 POP DUP1 DUP7 AND DUP5 OR SWAP3 POP POP POP SWAP4 SWAP3 POP POP POP JUMP JUMPDEST PUSH1 0x0 DUP2 SWAP1 POP SWAP2 SWAP1 POP JUMP JUMPDEST PUSH1 0x0 DUP2 SWAP1 POP SWAP2 SWAP1 POP JUMP JUMPDEST PUSH1 0x0 PUSH2 0x5C2 PUSH2 0x5BD PUSH2 0x5B8 DUP5 PUSH2 0x593 JUMP JUMPDEST PUSH2 0x59D JUMP JUMPDEST PUSH2 0x593 JUMP JUMPDEST SWAP1 POP SWAP2 SWAP1 POP JUMP JUMPDEST PUSH1 0x0 DUP2 SWAP1 POP SWAP2 SWAP1 POP JUMP JUMPDEST PUSH2 0x5DC DUP4 PUSH2 0x5A7 JUMP JUMPDEST PUSH2 0x5F0 PUSH2 0x5E8 DUP3 PUSH2 0x5C9 JUMP JUMPDEST DUP5 DUP5 SLOAD PUSH2 0x541 JUMP JUMPDEST DUP3 SSTORE POP POP POP POP JUMP JUMPDEST PUSH1 0x0 SWAP1 JUMP JUMPDEST PUSH2 0x605 PUSH2 0x5F8 JUMP JUMPDEST PUSH2 0x610 DUP2 DUP5 DUP5 PUSH2 0x5D3 JUMP JUMPDEST POP POP POP JUMP JUMPDEST JUMPDEST DUP2 DUP2 LT ISZERO PUSH2 0x634 JUMPI PUSH2 0x629 PUSH1 0x0 DUP3 PUSH2 0x5FD JUMP JUMPDEST PUSH1 0x1 DUP2 ADD SWAP1 POP PUSH2 0x616 JUMP JUMPDEST POP POP JUMP JUMPDEST PUSH1 0x1F DUP3 GT ISZERO PUSH2 0x679 JUMPI PUSH2 0x64A DUP2 PUSH2 0x50F JUMP JUMPDEST PUSH2 0x653 DUP5 PUSH2 0x524 JUMP JUMPDEST DUP2 ADD PUSH1 0x20 DUP6 LT ISZERO PUSH2 0x662 JUMPI DUP2 SWAP1 POP JUMPDEST PUSH2 0x676 PUSH2 0x66E DUP6 PUSH2 0x524 JUMP JUMPDEST DUP4 ADD DUP3 PUSH2 0x615 JUMP JUMPDEST POP POP JUMPDEST POP POP POP JUMP JUMPDEST PUSH1 0x0 DUP3 DUP3 SHR SWAP1 POP SWAP3 SWAP2 POP POP JUMP JUMPDEST PUSH1 0x0 PUSH2 0x69C PUSH1 0x0 NOT DUP5 PUSH1 0x8 MUL PUSH2 0x67E JUMP JUMPDEST NOT DUP1 DUP4 AND SWAP2 POP POP SWAP3 SWAP2 POP POP JUMP JUMPDEST PUSH1 0x0 PUSH2 0x6B5 DUP4 DUP4 PUSH2 0x68B JUMP JUMPDEST SWAP2 POP DUP3 PUSH1 0x2 MUL DUP3 OR SWAP1 POP SWAP3 SWAP2 POP POP JUMP JUMPDEST PUSH2 0x6CE DUP3 PUSH2 0x3BB JUMP JUMPDEST PUSH8 0xFFFFFFFFFFFFFFFF DUP2 GT ISZERO PUSH2 0x6E7 JUMPI PUSH2 0x6E6 PUSH2 0x1CF JUMP JUMPDEST JUMPDEST PUSH2 0x6F1 DUP3 SLOAD PUSH2 0x4DE JUMP JUMPDEST PUSH2 0x6FC DUP3 DUP3 DUP6 PUSH2 0x638 JUMP JUMPDEST PUSH1 0x0 PUSH1 0x20 SWAP1 POP PUSH1 0x1F DUP4 GT PUSH1 0x1 DUP2 EQ PUSH2 0x72F JUMPI PUSH1 0x0 DUP5 ISZERO PUSH2 0x71D JUMPI DUP3 DUP8 ADD MLOAD SWAP1 POP JUMPDEST PUSH2 0x727 DUP6 DUP3 PUSH2 0x6A9 JUMP JUMPDEST DUP7 SSTORE POP PUSH2 0x78F JUMP JUMPDEST PUSH1 0x1F NOT DUP5 AND PUSH2 0x73D DUP7 PUSH2 0x50F JUMP JUMPDEST PUSH1 0x0 JUMPDEST DUP3 DUP2 LT ISZERO PUSH2 0x765 JUMPI DUP5 DUP10 ADD MLOAD DUP3 SSTORE PUSH1 0x1 DUP3 ADD SWAP2 POP PUSH1 0x20 DUP6 ADD SWAP5 POP PUSH1 0x20 DUP2 ADD SWAP1 POP PUSH2 0x740 JUMP JUMPDEST DUP7 DUP4 LT ISZERO PUSH2 0x782 JUMPI DUP5 DUP10 ADD MLOAD PUSH2 0x77E PUSH1 0x1F DUP10 AND DUP3 PUSH2 0x68B JUMP JUMPDEST DUP4 SSTORE POP JUMPDEST PUSH1 0x1 PUSH1 0x2 DUP9 MUL ADD DUP9 SSTORE POP POP POP JUMPDEST POP POP POP POP POP POP JUMP INVALID LOG2 PUSH5 0x6970667358 0x22 SLT KECCAK256 PUSH7 0xE36860032C016D SWAP8 PUSH30 0x8223A34C54E16B9634FA1D1271FED5DB2FEE5D8381B964736F6C63430008 SGT STOP CALLER "},"methodIdentifiers":{"getIPFSHash(string)":"4a5f66c1","upload(string,string)":"202e4936"}}}}}